{
  "contractName": "TodoList",
  "abi": [
    {
      "inputs": [],
      "name": "count",
      "outputs": [
        {
          "internalType": "uint256",
          "name": "",
          "type": "uint256"
        }
      ],
      "stateMutability": "view",
      "type": "function",
      "constant": true
    },
    {
      "inputs": [
        {
          "internalType": "uint256",
          "name": "",
          "type": "uint256"
        }
      ],
      "name": "todos",
      "outputs": [
        {
          "internalType": "string",
          "name": "info",
          "type": "string"
        },
        {
          "internalType": "uint256",
          "name": "sno",
          "type": "uint256"
        }
      ],
      "stateMutability": "view",
      "type": "function",
      "constant": true
    },
    {
      "inputs": [
        {
          "internalType": "string",
          "name": "_info",
          "type": "string"
        }
      ],
      "name": "addTodo",
      "outputs": [],
      "stateMutability": "nonpayable",
      "type": "function"
    }
  ],
  "bytecode": "0x60806040526000805534801561001457600080fd5b5061066a806100246000396000f3fe608060405234801561001057600080fd5b50600436106100415760003560e01c806306661abd1461004657806395ffebf514610064578063bc8bc2b414610080575b600080fd5b61004e6100b1565b60405161005b919061028e565b60405180910390f35b61007e60048036038101906100799190610403565b6100b7565b005b61009a60048036038101906100959190610478565b610126565b6040516100a892919061052d565b60405180910390f35b60005481565b6000808154809291906100c99061058c565b91905055506040518060400160405280828152602001600054815250600160008054815260200190815260200160002060008201518160000190805190602001906101159291906101d2565b506020820151816001015590505050565b600160205280600052604060002060009150905080600001805461014990610603565b80601f016020809104026020016040519081016040528092919081815260200182805461017590610603565b80156101c25780601f10610197576101008083540402835291602001916101c2565b820191906000526020600020905b8154815290600101906020018083116101a557829003601f168201915b5050505050908060010154905082565b8280546101de90610603565b90600052602060002090601f0160209004810192826102005760008555610247565b82601f1061021957805160ff1916838001178555610247565b82800160010185558215610247579182015b8281111561024657825182559160200191906001019061022b565b5b5090506102549190610258565b5090565b5b80821115610271576000816000905550600101610259565b5090565b6000819050919050565b61028881610275565b82525050565b60006020820190506102a3600083018461027f565b92915050565b6000604051905090565b600080fd5b600080fd5b600080fd5b600080fd5b6000601f19601f8301169050919050565b7f4e487b7100000000000000000000000000000000000000000000000000000000600052604160045260246000fd5b610310826102c7565b810181811067ffffffffffffffff8211171561032f5761032e6102d8565b5b80604052505050565b60006103426102a9565b905061034e8282610307565b919050565b600067ffffffffffffffff82111561036e5761036d6102d8565b5b610377826102c7565b9050602081019050919050565b82818337600083830152505050565b60006103a66103a184610353565b610338565b9050828152602081018484840111156103c2576103c16102c2565b5b6103cd848285610384565b509392505050565b600082601f8301126103ea576103e96102bd565b5b81356103fa848260208601610393565b91505092915050565b600060208284031215610419576104186102b3565b5b600082013567ffffffffffffffff811115610437576104366102b8565b5b610443848285016103d5565b91505092915050565b61045581610275565b811461046057600080fd5b50565b6000813590506104728161044c565b92915050565b60006020828403121561048e5761048d6102b3565b5b600061049c84828501610463565b91505092915050565b600081519050919050565b600082825260208201905092915050565b60005b838110156104df5780820151818401526020810190506104c4565b838111156104ee576000848401525b50505050565b60006104ff826104a5565b61050981856104b0565b93506105198185602086016104c1565b610522816102c7565b840191505092915050565b6000604082019050818103600083015261054781856104f4565b9050610556602083018461027f565b9392505050565b7f4e487b7100000000000000000000000000000000000000000000000000000000600052601160045260246000fd5b600061059782610275565b91507fffffffffffffffffffffffffffffffffffffffffffffffffffffffffffffffff82036105c9576105c861055d565b5b600182019050919050565b7f4e487b7100000000000000000000000000000000000000000000000000000000600052602260045260246000fd5b6000600282049050600182168061061b57607f821691505b60208210810361062e5761062d6105d4565b5b5091905056fea2646970667358221220f28920d3ac6fdd02a8de5b0cb145909fe57be4f16efb5fcb5b370ab1764f2cc764736f6c634300080e0033",
  "immutableReferences": {},
  "source": "// SPDX-License-Identifier: MIT\npragma solidity >=0.4.22 <0.9.0;\n\ncontract TodoList {\n  uint public count=0;\n\n struct Todo{\n  string info;\n  uint sno;\n }\n\n mapping(uint=> Todo) public todos;\n\n  function addTodo(string memory _info) public{\n    count++;\n    todos[count] = Todo(_info,count);\n  }\n}\n",
  "sourcePath": "C:\\Users\\Magneto\\testing\\truffle\\contracts\\TodoList.sol",
  "compiler": {
    "name": "solc",
    "version": "0.8.14+commit.80d49f37.Emscripten.clang"
  },
  "schemaVersion": "3.4.8",
  "updatedAt": "2022-07-20T10:11:58.103Z",
  "networkType": "ethereum",
  "devdoc": {
    "kind": "dev",
    "methods": {},
    "version": 1
  },
  "userdoc": {
    "kind": "user",
    "methods": {},
    "version": 1
  }
}