{
  "contractName": "Transactions",
  "abi": [
    {
      "inputs": [],
      "name": "sno",
      "outputs": [
        {
          "internalType": "uint256",
          "name": "",
          "type": "uint256"
        }
      ],
      "stateMutability": "view",
      "type": "function",
      "constant": true
    },
    {
      "inputs": [
        {
          "internalType": "uint256",
          "name": "",
          "type": "uint256"
        }
      ],
      "name": "transaction",
      "outputs": [
        {
          "internalType": "uint256",
          "name": "_sno",
          "type": "uint256"
        },
        {
          "internalType": "string",
          "name": "_buyerID",
          "type": "string"
        },
        {
          "internalType": "string",
          "name": "_buyername",
          "type": "string"
        },
        {
          "internalType": "string",
          "name": "_sellername",
          "type": "string"
        },
        {
          "internalType": "uint256",
          "name": "_amount",
          "type": "uint256"
        },
        {
          "internalType": "string",
          "name": "_productID",
          "type": "string"
        },
        {
          "internalType": "string",
          "name": "_buyerEmail",
          "type": "string"
        },
        {
          "internalType": "uint256",
          "name": "_time",
          "type": "uint256"
        }
      ],
      "stateMutability": "view",
      "type": "function",
      "constant": true
    },
    {
      "inputs": [
        {
          "internalType": "string",
          "name": "_buyerID",
          "type": "string"
        },
        {
          "internalType": "string",
          "name": "_buyername",
          "type": "string"
        },
        {
          "internalType": "string",
          "name": "_sellername",
          "type": "string"
        },
        {
          "internalType": "uint256",
          "name": "_amount",
          "type": "uint256"
        },
        {
          "internalType": "string",
          "name": "_productID",
          "type": "string"
        },
        {
          "internalType": "string",
          "name": "_buyerEmail",
          "type": "string"
        }
      ],
      "name": "addTransaction",
      "outputs": [],
      "stateMutability": "nonpayable",
      "type": "function"
    }
  ],
  "bytecode": "0x60806040526000805534801561001457600080fd5b50610aa7806100246000396000f3fe608060405234801561001057600080fd5b50600436106100415760003560e01c806346bd08411461004657806380e8f63d1461007d578063cb28f1b21461009b575b600080fd5b610060600480360381019061005b91906105bb565b6100b7565b604051610074989796959493929190610690565b60405180910390f35b6100856103a7565b6040516100929190610731565b60405180910390f35b6100b560048036038101906100b09190610881565b6103ad565b005b60016020528060005260406000206000915090508060000154908060010180546100e0906109c9565b80601f016020809104026020016040519081016040528092919081815260200182805461010c906109c9565b80156101595780601f1061012e57610100808354040283529160200191610159565b820191906000526020600020905b81548152906001019060200180831161013c57829003601f168201915b50505050509080600201805461016e906109c9565b80601f016020809104026020016040519081016040528092919081815260200182805461019a906109c9565b80156101e75780601f106101bc576101008083540402835291602001916101e7565b820191906000526020600020905b8154815290600101906020018083116101ca57829003601f168201915b5050505050908060030180546101fc906109c9565b80601f0160208091040260200160405190810160405280929190818152602001828054610228906109c9565b80156102755780601f1061024a57610100808354040283529160200191610275565b820191906000526020600020905b81548152906001019060200180831161025857829003601f168201915b505050505090806004015490806005018054610290906109c9565b80601f01602080910402602001604051908101604052809291908181526020018280546102bc906109c9565b80156103095780601f106102de57610100808354040283529160200191610309565b820191906000526020600020905b8154815290600101906020018083116102ec57829003601f168201915b50505050509080600601805461031e906109c9565b80601f016020809104026020016040519081016040528092919081815260200182805461034a906109c9565b80156103975780601f1061036c57610100808354040283529160200191610397565b820191906000526020600020905b81548152906001019060200180831161037a57829003601f168201915b5050505050908060070154905088565b60005481565b6000808154809291906103bf90610a29565b9190505550604051806101000160405280600054815260200187815260200186815260200185815260200184815260200183815260200182815260200142815250600160008054815260200190815260200160002060008201518160000155602082015181600101908051906020019061043a9291906104ce565b5060408201518160020190805190602001906104579291906104ce565b5060608201518160030190805190602001906104749291906104ce565b506080820151816004015560a082015181600501908051906020019061049b9291906104ce565b5060c08201518160060190805190602001906104b89291906104ce565b5060e08201518160070155905050505050505050565b8280546104da906109c9565b90600052602060002090601f0160209004810192826104fc5760008555610543565b82601f1061051557805160ff1916838001178555610543565b82800160010185558215610543579182015b82811115610542578251825591602001919060010190610527565b5b5090506105509190610554565b5090565b5b8082111561056d576000816000905550600101610555565b5090565b6000604051905090565b600080fd5b600080fd5b6000819050919050565b61059881610585565b81146105a357600080fd5b50565b6000813590506105b58161058f565b92915050565b6000602082840312156105d1576105d061057b565b5b60006105df848285016105a6565b91505092915050565b6105f181610585565b82525050565b600081519050919050565b600082825260208201905092915050565b60005b83811015610631578082015181840152602081019050610616565b83811115610640576000848401525b50505050565b6000601f19601f8301169050919050565b6000610662826105f7565b61066c8185610602565b935061067c818560208601610613565b61068581610646565b840191505092915050565b6000610100820190506106a6600083018b6105e8565b81810360208301526106b8818a610657565b905081810360408301526106cc8189610657565b905081810360608301526106e08188610657565b90506106ef60808301876105e8565b81810360a08301526107018186610657565b905081810360c08301526107158185610657565b905061072460e08301846105e8565b9998505050505050505050565b600060208201905061074660008301846105e8565b92915050565b600080fd5b600080fd5b7f4e487b7100000000000000000000000000000000000000000000000000000000600052604160045260246000fd5b61078e82610646565b810181811067ffffffffffffffff821117156107ad576107ac610756565b5b80604052505050565b60006107c0610571565b90506107cc8282610785565b919050565b600067ffffffffffffffff8211156107ec576107eb610756565b5b6107f582610646565b9050602081019050919050565b82818337600083830152505050565b600061082461081f846107d1565b6107b6565b9050828152602081018484840111156108405761083f610751565b5b61084b848285610802565b509392505050565b600082601f8301126108685761086761074c565b5b8135610878848260208601610811565b91505092915050565b60008060008060008060c0878903121561089e5761089d61057b565b5b600087013567ffffffffffffffff8111156108bc576108bb610580565b5b6108c889828a01610853565b965050602087013567ffffffffffffffff8111156108e9576108e8610580565b5b6108f589828a01610853565b955050604087013567ffffffffffffffff81111561091657610915610580565b5b61092289828a01610853565b945050606061093389828a016105a6565b935050608087013567ffffffffffffffff81111561095457610953610580565b5b61096089828a01610853565b92505060a087013567ffffffffffffffff81111561098157610980610580565b5b61098d89828a01610853565b9150509295509295509295565b7f4e487b7100000000000000000000000000000000000000000000000000000000600052602260045260246000fd5b600060028204905060018216806109e157607f821691505b6020821081036109f4576109f361099a565b5b50919050565b7f4e487b7100000000000000000000000000000000000000000000000000000000600052601160045260246000fd5b6000610a3482610585565b91507fffffffffffffffffffffffffffffffffffffffffffffffffffffffffffffffff8203610a6657610a656109fa565b5b60018201905091905056fea264697066735822122019ac67bdc9c24c2489485802a1bc0530608ad2d2fcd92f09a17627722dc8e93d64736f6c634300080e0033",
  "immutableReferences": {},
  "source": "// SPDX-License-Identifier: MIT\npragma solidity >=0.4.22 <0.9.0;\n\ncontract Transactions {\n  uint public sno=0;\n\n struct Transaction{\n  uint _sno;\n  string _buyerID;\n  string _buyername;\n  string _sellername;\n  uint _amount;\n  string _productID;\n  string _buyerEmail;\n  uint256 _time;\n }\n\n mapping(uint=> Transaction) public transaction;\n\n  function addTransaction(string memory _buyerID, string memory _buyername, string memory _sellername, uint _amount, string memory _productID, string memory _buyerEmail) public{\n    sno++;\n    transaction[sno] = Transaction(sno,_buyerID,_buyername,_sellername,_amount,_productID,_buyerEmail, block.timestamp);\n  }\n}\n",
  "sourcePath": "/home/hp/Fraud-Detection/truffle/contracts/Transactions.sol",
  "compiler": {
    "name": "solc",
    "version": "0.8.14+commit.80d49f37.Emscripten.clang"
  },
  "schemaVersion": "3.4.8",
  "updatedAt": "2022-07-31T14:46:59.582Z",
  "networkType": "ethereum",
  "devdoc": {
    "kind": "dev",
    "methods": {},
    "version": 1
  },
  "userdoc": {
    "kind": "user",
    "methods": {},
    "version": 1
  }
}